{
  "contractName": "CryptoPizza",
  "abi": [
    {
      "inputs": [],
      "stateMutability": "nonpayable",
      "type": "constructor"
    },
    {
      "anonymous": false,
      "inputs": [
        {
          "indexed": true,
          "internalType": "address",
          "name": "owner",
          "type": "address"
        },
        {
          "indexed": true,
          "internalType": "address",
          "name": "approved",
          "type": "address"
        },
        {
          "indexed": true,
          "internalType": "uint256",
          "name": "tokenId",
          "type": "uint256"
        }
      ],
      "name": "Approval",
      "type": "event"
    },
    {
      "anonymous": false,
      "inputs": [
        {
          "indexed": true,
          "internalType": "address",
          "name": "owner",
          "type": "address"
        },
        {
          "indexed": true,
          "internalType": "address",
          "name": "operator",
          "type": "address"
        },
        {
          "indexed": false,
          "internalType": "bool",
          "name": "approved",
          "type": "bool"
        }
      ],
      "name": "ApprovalForAll",
      "type": "event"
    },
    {
      "anonymous": false,
      "inputs": [
        {
          "indexed": true,
          "internalType": "address",
          "name": "from",
          "type": "address"
        },
        {
          "indexed": true,
          "internalType": "address",
          "name": "to",
          "type": "address"
        },
        {
          "indexed": true,
          "internalType": "uint256",
          "name": "tokenId",
          "type": "uint256"
        }
      ],
      "name": "Transfer",
      "type": "event"
    },
    {
      "inputs": [
        {
          "internalType": "uint256",
          "name": "",
          "type": "uint256"
        }
      ],
      "name": "dnaPizzaExists",
      "outputs": [
        {
          "internalType": "bool",
          "name": "",
          "type": "bool"
        }
      ],
      "stateMutability": "view",
      "type": "function",
      "constant": true
    },
    {
      "inputs": [
        {
          "internalType": "string",
          "name": "",
          "type": "string"
        }
      ],
      "name": "namePizzaExists",
      "outputs": [
        {
          "internalType": "bool",
          "name": "",
          "type": "bool"
        }
      ],
      "stateMutability": "view",
      "type": "function",
      "constant": true
    },
    {
      "inputs": [
        {
          "internalType": "address",
          "name": "",
          "type": "address"
        }
      ],
      "name": "ownerPizzaCount",
      "outputs": [
        {
          "internalType": "uint256",
          "name": "",
          "type": "uint256"
        }
      ],
      "stateMutability": "view",
      "type": "function",
      "constant": true
    },
    {
      "inputs": [
        {
          "internalType": "uint256",
          "name": "",
          "type": "uint256"
        }
      ],
      "name": "pizzaToOwner",
      "outputs": [
        {
          "internalType": "address",
          "name": "",
          "type": "address"
        }
      ],
      "stateMutability": "view",
      "type": "function",
      "constant": true
    },
    {
      "inputs": [
        {
          "internalType": "uint256",
          "name": "",
          "type": "uint256"
        }
      ],
      "name": "pizzas",
      "outputs": [
        {
          "internalType": "string",
          "name": "name",
          "type": "string"
        }
      ],
      "stateMutability": "view",
      "type": "function",
      "constant": true
    },
    {
      "inputs": [
        {
          "internalType": "bytes4",
          "name": "interfaceId",
          "type": "bytes4"
        }
      ],
      "name": "supportsInterface",
      "outputs": [
        {
          "internalType": "bool",
          "name": "",
          "type": "bool"
        }
      ],
      "stateMutability": "view",
      "type": "function",
      "constant": true
    },
    {
      "inputs": [
        {
          "internalType": "string",
          "name": "_name",
          "type": "string"
        }
      ],
      "name": "createRandomPizza",
      "outputs": [],
      "stateMutability": "payable",
      "type": "function",
      "payable": true
    },
    {
      "inputs": [
        {
          "internalType": "string",
          "name": "_str",
          "type": "string"
        },
        {
          "internalType": "address",
          "name": "_owner",
          "type": "address"
        }
      ],
      "name": "generateRandomDna",
      "outputs": [
        {
          "internalType": "uint256",
          "name": "",
          "type": "uint256"
        }
      ],
      "stateMutability": "pure",
      "type": "function",
      "constant": true
    },
    {
      "inputs": [
        {
          "internalType": "string",
          "name": "_name",
          "type": "string"
        }
      ],
      "name": "_createPizza",
      "outputs": [],
      "stateMutability": "nonpayable",
      "type": "function"
    },
    {
      "inputs": [
        {
          "internalType": "address",
          "name": "_owner",
          "type": "address"
        }
      ],
      "name": "getPizzasByOwner",
      "outputs": [
        {
          "internalType": "uint256[]",
          "name": "",
          "type": "uint256[]"
        }
      ],
      "stateMutability": "view",
      "type": "function",
      "constant": true
    },
    {
      "inputs": [
        {
          "internalType": "address",
          "name": "_owner",
          "type": "address"
        }
      ],
      "name": "balanceOf",
      "outputs": [
        {
          "internalType": "uint256",
          "name": "_balance",
          "type": "uint256"
        }
      ],
      "stateMutability": "view",
      "type": "function",
      "constant": true
    },
    {
      "inputs": [
        {
          "internalType": "uint256",
          "name": "_pizzaId",
          "type": "uint256"
        }
      ],
      "name": "ownerOf",
      "outputs": [
        {
          "internalType": "address",
          "name": "",
          "type": "address"
        }
      ],
      "stateMutability": "view",
      "type": "function",
      "constant": true
    },
    {
      "inputs": [
        {
          "internalType": "address",
          "name": "_from",
          "type": "address"
        },
        {
          "internalType": "address",
          "name": "_to",
          "type": "address"
        },
        {
          "internalType": "uint256",
          "name": "_pizzaId",
          "type": "uint256"
        }
      ],
      "name": "transferFrom",
      "outputs": [],
      "stateMutability": "nonpayable",
      "type": "function"
    },
    {
      "inputs": [
        {
          "internalType": "address",
          "name": "_to",
          "type": "address"
        },
        {
          "internalType": "uint256",
          "name": "_pizzaId",
          "type": "uint256"
        }
      ],
      "name": "approve",
      "outputs": [],
      "stateMutability": "nonpayable",
      "type": "function"
    },
    {
      "inputs": [
        {
          "internalType": "uint256",
          "name": "_pizzaId",
          "type": "uint256"
        }
      ],
      "name": "getApproved",
      "outputs": [
        {
          "internalType": "address",
          "name": "operator",
          "type": "address"
        }
      ],
      "stateMutability": "view",
      "type": "function",
      "constant": true
    },
    {
      "inputs": [
        {
          "internalType": "address",
          "name": "to",
          "type": "address"
        },
        {
          "internalType": "bool",
          "name": "approved",
          "type": "bool"
        }
      ],
      "name": "setApprovalForAll",
      "outputs": [],
      "stateMutability": "nonpayable",
      "type": "function"
    },
    {
      "inputs": [
        {
          "internalType": "address",
          "name": "_owner",
          "type": "address"
        },
        {
          "internalType": "address",
          "name": "operator",
          "type": "address"
        }
      ],
      "name": "isApprovedForAll",
      "outputs": [
        {
          "internalType": "bool",
          "name": "",
          "type": "bool"
        }
      ],
      "stateMutability": "view",
      "type": "function",
      "constant": true
    },
    {
      "inputs": [
        {
          "internalType": "address",
          "name": "from",
          "type": "address"
        },
        {
          "internalType": "address",
          "name": "to",
          "type": "address"
        },
        {
          "internalType": "uint256",
          "name": "pizzaId",
          "type": "uint256"
        }
      ],
      "name": "safeTransferFrom",
      "outputs": [],
      "stateMutability": "nonpayable",
      "type": "function"
    },
    {
      "inputs": [
        {
          "internalType": "address",
          "name": "from",
          "type": "address"
        },
        {
          "internalType": "address",
          "name": "to",
          "type": "address"
        },
        {
          "internalType": "uint256",
          "name": "pizzaId",
          "type": "uint256"
        },
        {
          "internalType": "bytes",
          "name": "_data",
          "type": "bytes"
        }
      ],
      "name": "safeTransferFrom",
      "outputs": [],
      "stateMutability": "nonpayable",
      "type": "function"
    },
    {
      "inputs": [
        {
          "internalType": "uint256",
          "name": "_pizzaId",
          "type": "uint256"
        }
      ],
      "name": "burn",
      "outputs": [],
      "stateMutability": "nonpayable",
      "type": "function"
    },
    {
      "inputs": [
        {
          "internalType": "uint256",
          "name": "_pizzaId",
          "type": "uint256"
        }
      ],
      "name": "takeOwnership",
      "outputs": [],
      "stateMutability": "nonpayable",
      "type": "function"
    }
  ],
  "bytecode": "0x60806040523480156200001157600080fd5b506200002a6301ffc9a760e01b6200005660201b60201c565b3373ffffffffffffffffffffffffffffffffffffffff16600160009054906101000a905050506200015f565b63ffffffff60e01b817bffffffffffffffffffffffffffffffffffffffffffffffffffffffff19161415620000f3576040517f08c379a000000000000000000000000000000000000000000000000000000000815260040180806020018281038252601c8152602001807f4552433136353a20696e76616c696420696e746572666163652069640000000081525060200191505060405180910390fd5b6001600080837bffffffffffffffffffffffffffffffffffffffffffffffffffffffff19167bffffffffffffffffffffffffffffffffffffffffffffffffffffffff1916815260200190815260200160002060006101000a81548160ff02191690831515021790555050565b612b2f806200016f6000396000f3fe60806040526004361061012a5760003560e01c80636b67a1b2116100ab578063b88d4fde1161006f578063b88d4fde146107fe578063c7d6de1014610910578063ce7b7d03146109d8578063e27f312414610a93578063e985e9c514610b71578063ff59cf2414610bf85761012a565b80636b67a1b2146105a757806370a082311461065b5780639cde8ffe146106c0578063a22cb46514610766578063b2e6ceeb146107c35761012a565b80633476a467116100f25780633476a4671461032b5780633ac053f91461039057806342842e0e1461048c57806342966c68146105075780636352211e146105425761012a565b806301ffc9a71461012f578063081812fc1461019f578063095ea7b3146102045780630a038eb71461025f57806323b872dd146102b0575b600080fd5b34801561013b57600080fd5b506101876004803603602081101561015257600080fd5b8101908080357bffffffffffffffffffffffffffffffffffffffffffffffffffffffff19169060200190929190505050610c5d565b60405180821515815260200191505060405180910390f35b3480156101ab57600080fd5b506101d8600480360360208110156101c257600080fd5b8101908080359060200190929190505050610cc4565b604051808273ffffffffffffffffffffffffffffffffffffffff16815260200191505060405180910390f35b34801561021057600080fd5b5061025d6004803603604081101561022757600080fd5b81019080803573ffffffffffffffffffffffffffffffffffffffff16906020019092919080359060200190929190505050610d7c565b005b34801561026b57600080fd5b506102986004803603602081101561028257600080fd5b8101908080359060200190929190505050610f01565b60405180821515815260200191505060405180910390f35b3480156102bc57600080fd5b50610329600480360360608110156102d357600080fd5b81019080803573ffffffffffffffffffffffffffffffffffffffff169060200190929190803573ffffffffffffffffffffffffffffffffffffffff16906020019092919080359060200190929190505050610f21565b005b34801561033757600080fd5b506103646004803603602081101561034e57600080fd5b8101908080359060200190929190505050611361565b604051808273ffffffffffffffffffffffffffffffffffffffff16815260200191505060405180910390f35b34801561039c57600080fd5b50610476600480360360408110156103b357600080fd5b81019080803590602001906401000000008111156103d057600080fd5b8201836020820111156103e257600080fd5b8035906020019184600183028401116401000000008311171561040457600080fd5b91908080601f016020809104026020016040519081016040528093929190818152602001838380828437600081840152601f19601f820116905080830192505050505050509192919290803573ffffffffffffffffffffffffffffffffffffffff169060200190929190505050611394565b6040518082815260200191505060405180910390f35b34801561049857600080fd5b50610505600480360360608110156104af57600080fd5b81019080803573ffffffffffffffffffffffffffffffffffffffff169060200190929190803573ffffffffffffffffffffffffffffffffffffffff16906020019092919080359060200190929190505050611448565b005b34801561051357600080fd5b506105406004803603602081101561052a57600080fd5b8101908080359060200190929190505050611468565b005b34801561054e57600080fd5b5061057b6004803603602081101561056557600080fd5b81019080803590602001909291905050506116ee565b604051808273ffffffffffffffffffffffffffffffffffffffff16815260200191505060405180910390f35b3480156105b357600080fd5b506105e0600480360360208110156105ca57600080fd5b81019080803590602001909291905050506117d3565b6040518080602001828103825283818151815260200191508051906020019080838360005b83811015610620578082015181840152602081019050610605565b50505050905090810190601f16801561064d5780820380516001836020036101000a031916815260200191505b509250505060405180910390f35b34801561066757600080fd5b506106aa6004803603602081101561067e57600080fd5b81019080803573ffffffffffffffffffffffffffffffffffffffff169060200190929190505050611892565b6040518082815260200191505060405180910390f35b3480156106cc57600080fd5b5061070f600480360360208110156106e357600080fd5b81019080803573ffffffffffffffffffffffffffffffffffffffff1690602001909291905050506118db565b6040518080602001828103825283818151815260200191508051906020019060200280838360005b83811015610752578082015181840152602081019050610737565b505050509050019250505060405180910390f35b34801561077257600080fd5b506107c16004803603604081101561078957600080fd5b81019080803573ffffffffffffffffffffffffffffffffffffffff169060200190929190803515159060200190929190505050611a18565b005b3480156107cf57600080fd5b506107fc600480360360208110156107e657600080fd5b8101908080359060200190929190505050611bb9565b005b34801561080a57600080fd5b5061090e6004803603608081101561082157600080fd5b81019080803573ffffffffffffffffffffffffffffffffffffffff169060200190929190803573ffffffffffffffffffffffffffffffffffffffff169060200190929190803590602001909291908035906020019064010000000081111561088857600080fd5b82018360208201111561089a57600080fd5b803590602001918460018302840111640100000000831117156108bc57600080fd5b91908080601f016020809104026020016040519081016040528093929190818152602001838380828437600081840152601f19601f820116905080830192505050505050509192919290505050611c51565b005b34801561091c57600080fd5b506109d66004803603602081101561093357600080fd5b810190808035906020019064010000000081111561095057600080fd5b82018360208201111561096257600080fd5b8035906020019184600183028401116401000000008311171561098457600080fd5b91908080601f016020809104026020016040519081016040528093929190818152602001838380828437600081840152601f19601f820116905080830192505050505050509192919290505050611cc3565b005b610a91600480360360208110156109ee57600080fd5b8101908080359060200190640100000000811115610a0b57600080fd5b820183602082011115610a1d57600080fd5b80359060200191846001830284011164010000000083111715610a3f57600080fd5b91908080601f016020809104026020016040519081016040528093929190818152602001838380828437600081840152601f19601f820116905080830192505050505050509192919290505050611fdb565b005b348015610a9f57600080fd5b50610b5960048036036020811015610ab657600080fd5b8101908080359060200190640100000000811115610ad357600080fd5b820183602082011115610ae557600080fd5b80359060200191846001830284011164010000000083111715610b0757600080fd5b91908080601f016020809104026020016040519081016040528093929190818152602001838380828437600081840152601f19601f82011690508083019250505050505050919291929050505061212c565b60405180821515815260200191505060405180910390f35b348015610b7d57600080fd5b50610be060048036036040811015610b9457600080fd5b81019080803573ffffffffffffffffffffffffffffffffffffffff169060200190929190803573ffffffffffffffffffffffffffffffffffffffff169060200190929190505050612162565b60405180821515815260200191505060405180910390f35b348015610c0457600080fd5b50610c4760048036036020811015610c1b57600080fd5b81019080803573ffffffffffffffffffffffffffffffffffffffff1690602001909291905050506121f6565b6040518082815260200191505060405180910390f35b6000806000837bffffffffffffffffffffffffffffffffffffffffffffffffffffffff19167bffffffffffffffffffffffffffffffffffffffffffffffffffffffff1916815260200190815260200160002060009054906101000a900460ff169050919050565b6000610ccf8261220e565b610d41576040517f08c379a00000000000000000000000000000000000000000000000000000000081526004018080602001828103825260158152602001807f50697a7a6120646f6573206e6f742065786973742e000000000000000000000081525060200191505060405180910390fd5b6007600083815260200190815260200160002060009054906101000a900473ffffffffffffffffffffffffffffffffffffffff169050919050565b6003600082815260200190815260200160002060009054906101000a900473ffffffffffffffffffffffffffffffffffffffff1673ffffffffffffffffffffffffffffffffffffffff163373ffffffffffffffffffffffffffffffffffffffff1614610e50576040517f08c379a00000000000000000000000000000000000000000000000000000000081526004018080602001828103825260188152602001807f4d757374206265207468652050697a7a61206f776e65722e000000000000000081525060200191505060405180910390fd5b816007600083815260200190815260200160002060006101000a81548173ffffffffffffffffffffffffffffffffffffffff021916908373ffffffffffffffffffffffffffffffffffffffff160217905550808273ffffffffffffffffffffffffffffffffffffffff163373ffffffffffffffffffffffffffffffffffffffff167f8c5be1e5ebec7d5bd14f71427d1e84f3dd0314c0f7b2291e5b200ac8c7c3b92560405160405180910390a45050565b60056020528060005260406000206000915054906101000a900460ff1681565b600073ffffffffffffffffffffffffffffffffffffffff168373ffffffffffffffffffffffffffffffffffffffff1614158015610f8b5750600073ffffffffffffffffffffffffffffffffffffffff168273ffffffffffffffffffffffffffffffffffffffff1614155b610ffd576040517f08c379a00000000000000000000000000000000000000000000000000000000081526004018080602001828103825260108152602001807f496e76616c696420616464726573732e0000000000000000000000000000000081525060200191505060405180910390fd5b6110068161220e565b611078576040517f08c379a00000000000000000000000000000000000000000000000000000000081526004018080602001828103825260158152602001807f50697a7a6120646f6573206e6f742065786973742e000000000000000000000081525060200191505060405180910390fd5b8173ffffffffffffffffffffffffffffffffffffffff168373ffffffffffffffffffffffffffffffffffffffff1614156110fd576040517f08c379a0000000000000000000000000000000000000000000000000000000008152600401808060200182810382526024815260200180612ab26024913960400191505060405180910390fd5b6111073382612280565b611179576040517f08c379a00000000000000000000000000000000000000000000000000000000081526004018080602001828103825260188152602001807f41646472657373206973206e6f7420617070726f7665642e000000000000000081525060200191505060405180910390fd5b6111cc6001600460008573ffffffffffffffffffffffffffffffffffffffff1673ffffffffffffffffffffffffffffffffffffffff1681526020019081526020016000205461234090919063ffffffff16565b600460008473ffffffffffffffffffffffffffffffffffffffff1673ffffffffffffffffffffffffffffffffffffffff168152602001908152602001600020819055506112626001600460008673ffffffffffffffffffffffffffffffffffffffff1673ffffffffffffffffffffffffffffffffffffffff168152602001908152602001600020546123c890919063ffffffff16565b600460008573ffffffffffffffffffffffffffffffffffffffff1673ffffffffffffffffffffffffffffffffffffffff16815260200190815260200160002081905550816003600083815260200190815260200160002060006101000a81548173ffffffffffffffffffffffffffffffffffffffff021916908373ffffffffffffffffffffffffffffffffffffffff160217905550808273ffffffffffffffffffffffffffffffffffffffff168473ffffffffffffffffffffffffffffffffffffffff167fddf252ad1be2c89b69c2b068fc378daa952ba7f163c4a11628f55a4df523b3ef60405160405180910390a461135c8282612412565b505050565b60036020528060005260406000206000915054906101000a900473ffffffffffffffffffffffffffffffffffffffff1681565b6000808273ffffffffffffffffffffffffffffffffffffffff16846040516020018082805190602001908083835b602083106113e557805182526020820191506020810190506020830392506113c2565b6001836020036101000a0380198251168184511680821785525050505050509050019150506040516020818303038152906040528051906020012060001c01905061143c600a800a8261262090919063ffffffff16565b90508091505092915050565b61146383838360405180602001604052806000815250611c51565b505050565b600073ffffffffffffffffffffffffffffffffffffffff163373ffffffffffffffffffffffffffffffffffffffff16141561150b576040517f08c379a00000000000000000000000000000000000000000000000000000000081526004018080602001828103825260108152602001807f496e76616c696420616464726573732e0000000000000000000000000000000081525060200191505060405180910390fd5b6115148161220e565b611586576040517f08c379a00000000000000000000000000000000000000000000000000000000081526004018080602001828103825260158152602001807f50697a7a6120646f6573206e6f742065786973742e000000000000000000000081525060200191505060405180910390fd5b6115903382612280565b611602576040517f08c379a00000000000000000000000000000000000000000000000000000000081526004018080602001828103825260188152602001807f41646472657373206973206e6f7420617070726f7665642e000000000000000081525060200191505060405180910390fd5b6116556001600460003373ffffffffffffffffffffffffffffffffffffffff1673ffffffffffffffffffffffffffffffffffffffff168152602001908152602001600020546123c890919063ffffffff16565b600460003373ffffffffffffffffffffffffffffffffffffffff1673ffffffffffffffffffffffffffffffffffffffff1681526020019081526020016000208190555060006003600083815260200190815260200160002060006101000a81548173ffffffffffffffffffffffffffffffffffffffff021916908373ffffffffffffffffffffffffffffffffffffffff16021790555050565b6000806003600084815260200190815260200160002060009054906101000a900473ffffffffffffffffffffffffffffffffffffffff169050600073ffffffffffffffffffffffffffffffffffffffff168173ffffffffffffffffffffffffffffffffffffffff1614156117ca576040517f08c379a00000000000000000000000000000000000000000000000000000000081526004018080602001828103825260118152602001807f496e76616c69642050697a7a612049442e00000000000000000000000000000081525060200191505060405180910390fd5b80915050919050565b600281815481106117e057fe5b90600052602060002001600091509050806000018054600181600116156101000203166002900480601f0160208091040260200160405190810160405280929190818152602001828054600181600116156101000203166002900480156118885780601f1061185d57610100808354040283529160200191611888565b820191906000526020600020905b81548152906001019060200180831161186b57829003601f168201915b5050505050905081565b6000600460008373ffffffffffffffffffffffffffffffffffffffff1673ffffffffffffffffffffffffffffffffffffffff168152602001908152602001600020549050919050565b606080600460008473ffffffffffffffffffffffffffffffffffffffff1673ffffffffffffffffffffffffffffffffffffffff1681526020019081526020016000205467ffffffffffffffff8111801561193457600080fd5b506040519080825280602002602001820160405280156119635781602001602082028036833780820191505090505b5090506000805b600280549050811015611a0d578473ffffffffffffffffffffffffffffffffffffffff166003600083815260200190815260200160002060009054906101000a900473ffffffffffffffffffffffffffffffffffffffff1673ffffffffffffffffffffffffffffffffffffffff161415611a0057808383815181106119eb57fe5b60200260200101818152505081806001019250505b808060010191505061196a565b508192505050919050565b3373ffffffffffffffffffffffffffffffffffffffff168273ffffffffffffffffffffffffffffffffffffffff161415611aba576040517f08c379a000000000000000000000000000000000000000000000000000000000815260040180806020018281038252601a8152602001807f43616e6e6f7420617070726f7665206f776e206164647265737300000000000081525060200191505060405180910390fd5b80600860003373ffffffffffffffffffffffffffffffffffffffff1673ffffffffffffffffffffffffffffffffffffffff16815260200190815260200160002060008473ffffffffffffffffffffffffffffffffffffffff1673ffffffffffffffffffffffffffffffffffffffff16815260200190815260200160002060006101000a81548160ff0219169083151502179055508173ffffffffffffffffffffffffffffffffffffffff163373ffffffffffffffffffffffffffffffffffffffff167f17307eab39ab6107e8899845ad3d59bd9653f200f220920489ca2b5937696c318360405180821515815260200191505060405180910390a35050565b611bc33382612280565b611c35576040517f08c379a00000000000000000000000000000000000000000000000000000000081526004018080602001828103825260188152602001807f41646472657373206973206e6f7420617070726f7665642e000000000000000081525060200191505060405180910390fd5b6000611c40826116ee565b9050611c4d813384610f21565b5050565b611c5c848484610f21565b611c688484848461266a565b611cbd576040517f08c379a0000000000000000000000000000000000000000000000000000000008152600401808060200182810382526021815260200180612a916021913960400191505060405180910390fd5b50505050565b806006816040518082805190602001908083835b60208310611cfa5780518252602082019150602081019050602083039250611cd7565b6001836020036101000a038019825116818451168082178552505050505050905001915050908152602001604051809103902060009054906101000a900460ff1615611d91576040517f08c379a0000000000000000000000000000000000000000000000000000000008152600401808060200182810382526024815260200180612ad66024913960400191505060405180910390fd5b6002604051806020016040528084815250908060018154018082558091505060019003906000526020600020016000909190919091506000820151816000019080519060200190611de39291906129f3565b5050506000611e0160016002805490506123c890919063ffffffff16565b905060016006846040518082805190602001908083835b60208310611e3b5780518252602082019150602081019050602083039250611e18565b6001836020036101000a038019825116818451168082178552505050505050905001915050908152602001604051809103902060006101000a81548160ff021916908315150217905550600073ffffffffffffffffffffffffffffffffffffffff166003600083815260200190815260200160002060009054906101000a900473ffffffffffffffffffffffffffffffffffffffff1673ffffffffffffffffffffffffffffffffffffffff1614611eee57fe5b336003600083815260200190815260200160002060006101000a81548173ffffffffffffffffffffffffffffffffffffffff021916908373ffffffffffffffffffffffffffffffffffffffff160217905550611f936001600460003373ffffffffffffffffffffffffffffffffffffffff1673ffffffffffffffffffffffffffffffffffffffff1681526020019081526020016000205461234090919063ffffffff16565b600460003373ffffffffffffffffffffffffffffffffffffffff1673ffffffffffffffffffffffffffffffffffffffff16815260200190815260200160002081905550505050565b6619396991e7c0003414612057576040517f08c379a000000000000000000000000000000000000000000000000000000000815260040180806020018281038252601b8152602001807f496e73756666696369656e74206574686572207265636569766564000000000081525060200191505060405180910390fd5b61206081611cc3565b73b9528688219af3cbb8e59696c774feee0630a26d73ffffffffffffffffffffffffffffffffffffffff1663a9059cbb33676f05b59d3b2000006040518363ffffffff1660e01b8152600401808373ffffffffffffffffffffffffffffffffffffffff16815260200182815260200192505050602060405180830381600087803b1580156120ed57600080fd5b505af1158015612101573d6000803e3d6000fd5b505050506040513d602081101561211757600080fd5b81019080805190602001909291905050505050565b6006818051602081018201805184825260208301602085012081835280955050505050506000915054906101000a900460ff1681565b6000600860008473ffffffffffffffffffffffffffffffffffffffff1673ffffffffffffffffffffffffffffffffffffffff16815260200190815260200160002060008373ffffffffffffffffffffffffffffffffffffffff1673ffffffffffffffffffffffffffffffffffffffff16815260200190815260200160002060009054906101000a900460ff16905092915050565b60046020528060005260406000206000915090505481565b6000806003600084815260200190815260200160002060009054906101000a900473ffffffffffffffffffffffffffffffffffffffff169050600073ffffffffffffffffffffffffffffffffffffffff168173ffffffffffffffffffffffffffffffffffffffff161415915050919050565b6000806003600084815260200190815260200160002060009054906101000a900473ffffffffffffffffffffffffffffffffffffffff1690508073ffffffffffffffffffffffffffffffffffffffff168473ffffffffffffffffffffffffffffffffffffffff16148061232657508373ffffffffffffffffffffffffffffffffffffffff1661230e84610cc4565b73ffffffffffffffffffffffffffffffffffffffff16145b8061233757506123368185612162565b5b91505092915050565b6000808284019050838110156123be576040517f08c379a000000000000000000000000000000000000000000000000000000000815260040180806020018281038252601b8152602001807f536166654d6174683a206164646974696f6e206f766572666c6f77000000000081525060200191505060405180910390fd5b8091505092915050565b600061240a83836040518060400160405280601e81526020017f536166654d6174683a207375627472616374696f6e206f766572666c6f770000815250612827565b905092915050565b8173ffffffffffffffffffffffffffffffffffffffff166003600083815260200190815260200160002060009054906101000a900473ffffffffffffffffffffffffffffffffffffffff1673ffffffffffffffffffffffffffffffffffffffff16146124e6576040517f08c379a00000000000000000000000000000000000000000000000000000000081526004018080602001828103825260148152602001807f4d7573742062652070697a7a61206f776e65722e00000000000000000000000081525060200191505060405180910390fd5b6124ef8161220e565b612561576040517f08c379a00000000000000000000000000000000000000000000000000000000081526004018080602001828103825260158152602001807f50697a7a6120646f6573206e6f742065786973742e000000000000000000000081525060200191505060405180910390fd5b600073ffffffffffffffffffffffffffffffffffffffff166007600083815260200190815260200160002060009054906101000a900473ffffffffffffffffffffffffffffffffffffffff1673ffffffffffffffffffffffffffffffffffffffff161461261c5760006007600083815260200190815260200160002060006101000a81548173ffffffffffffffffffffffffffffffffffffffff021916908373ffffffffffffffffffffffffffffffffffffffff1602179055505b5050565b600061266283836040518060400160405280601881526020017f536166654d6174683a206d6f64756c6f206279207a65726f00000000000000008152506128e7565b905092915050565b600061268b8473ffffffffffffffffffffffffffffffffffffffff166129a8565b612698576001905061281f565b60008473ffffffffffffffffffffffffffffffffffffffff1663150b7a02338887876040518563ffffffff1660e01b8152600401808573ffffffffffffffffffffffffffffffffffffffff1681526020018473ffffffffffffffffffffffffffffffffffffffff16815260200183815260200180602001828103825283818151815260200191508051906020019080838360005b8381101561274757808201518184015260208101905061272c565b50505050905090810190601f1680156127745780820380516001836020036101000a031916815260200191505b5095505050505050602060405180830381600087803b15801561279657600080fd5b505af11580156127aa573d6000803e3d6000fd5b505050506040513d60208110156127c057600080fd5b8101908080519060200190929190505050905063150b7a0260e01b7bffffffffffffffffffffffffffffffffffffffffffffffffffffffff1916817bffffffffffffffffffffffffffffffffffffffffffffffffffffffff1916149150505b949350505050565b60008383111582906128d4576040517f08c379a00000000000000000000000000000000000000000000000000000000081526004018080602001828103825283818151815260200191508051906020019080838360005b8381101561289957808201518184015260208101905061287e565b50505050905090810190601f1680156128c65780820380516001836020036101000a031916815260200191505b509250505060405180910390fd5b5060008385039050809150509392505050565b6000808314158290612994576040517f08c379a00000000000000000000000000000000000000000000000000000000081526004018080602001828103825283818151815260200191508051906020019080838360005b8381101561295957808201518184015260208101905061293e565b50505050905090810190601f1680156129865780820380516001836020036101000a031916815260200191505b509250505060405180910390fd5b5082848161299e57fe5b0690509392505050565b60008060007fc5d2460186f7233c927e7db2dcc703c0e500b653ca82273b7bfad8045d85a47060001b9050833f91508082141580156129ea57506000801b8214155b92505050919050565b828054600181600116156101000203166002900490600052602060002090601f016020900481019282601f10612a3457805160ff1916838001178555612a62565b82800160010185558215612a62579182015b82811115612a61578251825591602001919060010190612a46565b5b509050612a6f9190612a73565b5090565b5b80821115612a8c576000816000905550600101612a74565b509056fe4d75737420696d706c6d656d656e74206f6e45524337323152656365697665642e43616e6e6f74207472616e7366657220746f207468652073616d6520616464726573732e50697a7a6120776974682073756368206e616d6520616c7265616479206578697374732ea2646970667358221220cf06a844ef14fbf0e6c20c09b2d097170f2fee72ce2af0ff5c39ff084061005664736f6c634300060c0033",
  "immutableReferences": {},
  "source": "// SPDX-License-Identifier: GNU GPL v.3\r\npragma solidity ^0.6.2;\r\n\r\n// Imports symbols from other files into the current contract.\r\n// In this case, a series of helper contracts from OpenZeppelin.\r\n// Learn more: https://solidity.readthedocs.io/en/v0.6.2/layout-of-source-files.html#importing-other-source-files\r\n\r\n// IERC721 is the ERC721 interface that we'll use to make CryptoPizza ERC721 compliant\r\n// More about ERC721: https://eips.ethereum.org/EIPS/eip-721\r\nimport \"@openzeppelin/contracts/token/ERC721/IERC721.sol\";\r\n// IERC721Receiver must be implemented to accept safe transfers.\r\n// It is included on the ERC721 standard\r\nimport \"@openzeppelin/contracts/token/ERC721/IERC721Receiver.sol\";\r\n// ERC165 is used to declare interface support for IERC721\r\n// More about ERC165: https://eips.ethereum.org/EIPS/eip-165\r\nimport \"@openzeppelin/contracts/introspection/ERC165.sol\";\r\n// SafeMath will be used for every math operation\r\nimport \"@openzeppelin/contracts/math/SafeMath.sol\";\r\n// Address will provide functions such as .isContract verification\r\nimport \"@openzeppelin/contracts/utils/Address.sol\";\r\n\r\nimport \"@openzeppelin/contracts-upgradeable/token/ERC20/IERC20Upgradeable.sol\";\r\n\r\n// The `is` keyword is used to inherit functions and keywords from external contracts.\r\n// In this case, `CryptoPizza` inherits from the `IERC721` and `ERC165` contracts.\r\n// Learn more: https://solidity.readthedocs.io/en/v0.6.2/contracts.html#inheritance\r\ncontract CryptoPizza is IERC721, ERC165 {\r\n    // Uses OpenZeppelin's SafeMath library to perform arithmetic operations safely.\r\n    // Learn more: https://docs.openzeppelin.com/contracts/3.x/api/math#SafeMath\r\n    using SafeMath for uint256;\r\n    using Address for address;\r\n\r\n    // Constant state variables in Solidity are similar to other languages\r\n    // but you must assign from an expression which is constant at compile time.\r\n    // Learn more: https://solidity.readthedocs.io/en/v0.6.2/contracts.html#constant-state-variables\r\n    uint256 constant dnaDigits = 10;\r\n    uint256 constant dnaModulus = 10**dnaDigits;\r\n    address owner;\r\n\r\n    // ERC165 identifier for the ERC721 interface got from\r\n    // bytes4(keccak256(\"onERC721Received(address,address,uint256,bytes)\"))\r\n    bytes4 private constant _ERC721_RECEIVED = 0x150b7a02;\r\n\r\n    // Struct types let you define your own type\r\n    // Learn more: https://solidity.readthedocs.io/en/v0.6.2/types.html#structs\r\n    struct Pizza {\r\n        string name;\r\n    }\r\n\r\n    constructor() public {\r\n        owner == msg.sender;\r\n    }\r\n\r\n\r\n    // Creates an empty array of Pizza structs\r\n    Pizza[] public pizzas;\r\n\r\n    // Mapping from id of Pizza to its owner's address\r\n    mapping(uint256 => address) public pizzaToOwner;\r\n\r\n    // Mapping from owner's address to number of owned token\r\n    mapping(address => uint256) public ownerPizzaCount;\r\n\r\n    // Mapping to validate that dna is not already taken\r\n    mapping(uint256 => bool) public dnaPizzaExists;\r\n\r\n    // Mapping to validate that name is not already taken\r\n    mapping(string => bool) public namePizzaExists;\r\n\r\n    // Mapping from token ID to approved address\r\n    mapping(uint256 => address) pizzaApprovals;\r\n\r\n    // You can nest mappings, this example maps owner to operator approvals\r\n    mapping(address => mapping(address => bool)) private operatorApprovals;\r\n\r\n    // Check if Pizza is unique and doesn't exist yet\r\n    modifier isUnique(string memory _name) {\r\n        require(\r\n            !namePizzaExists[_name],\r\n            \"Pizza with such name already exists.\"\r\n        );\r\n        _;\r\n    }\r\n\r\n  \r\n    // Creates a random Pizza from string (name)\r\n    function createRandomPizza(string memory _name) payable public {\r\n         require(msg.value == 7100000000000000, \"Insufficient ether received\");\r\n         _createPizza(_name);\r\n        IERC20Upgradeable(0xB9528688219Af3cbB8e59696C774feee0630a26D).transfer(msg.sender, 8000000000000000000);\r\n        //  address payable feeRecipient = 0x2560dE277f434ceec031442dBBBDad9C18dF290D;\r\n        //  feeRecipient.transfer(msg.value);\r\n        }\r\n\r\n    // Generates random DNA from string (name) and address of the owner (creator)\r\n    function generateRandomDna(string memory _str, address _owner)\r\n        public\r\n        pure\r\n        returns (\r\n            // Functions marked as `pure` promise not to read from or modify the state\r\n            // Learn more: https://solidity.readthedocs.io/en/v0.6.2/contracts.html#pure-functions\r\n            uint256\r\n        )\r\n    {\r\n        // Generates random uint from string (name) + address (owner)\r\n        uint256 rand = uint256(keccak256(abi.encodePacked(_str))) +\r\n            uint256(_owner);\r\n        rand = rand.mod(dnaModulus);\r\n        return rand;\r\n    }\r\n\r\n   \r\n\r\n    // Internal function to create a random Pizza from string (name) and DNA\r\n    function _createPizza(string memory _name)  public\r\n        // The `internal` keyword means this function is only visible\r\n        // within this contract and contracts that derive this contract\r\n        // Learn more: https://solidity.readthedocs.io/en/v0.6.2/contracts.html#visibility-and-getters\r\n        // `isUnique` is a function modifier that checks if the pizza already exists\r\n        // Learn more: https://solidity.readthedocs.io/en/v0.6.2/structure-of-a-contract.html#function-modifiers\r\n        isUnique(_name)\r\n    {\r\n        \r\n        // Adds Pizza to array of Pizzas and get id\r\n        pizzas.push(Pizza(_name));\r\n        uint256 id = pizzas.length.sub(1);\r\n\r\n        // Mark as existent pizza name and dna\r\n\r\n        namePizzaExists[_name] = true;\r\n\r\n        // Checks that Pizza owner is the same as current user\r\n        // Learn more: https://solidity.readthedocs.io/en/v0.6.2/control-structures.html#error-handling-assert-require-revert-and-exceptions\r\n        assert(pizzaToOwner[id] == address(0));\r\n\r\n        // Maps the Pizza to the owner\r\n        pizzaToOwner[id] = msg.sender;\r\n        ownerPizzaCount[msg.sender] = ownerPizzaCount[msg.sender].add(1);\r\n    }\r\n\r\n    // Returns array of Pizzas found by owner\r\n    function getPizzasByOwner(address _owner)\r\n        public\r\n        view\r\n        returns (\r\n            // Functions marked as `view` promise not to modify state\r\n            // Learn more: https://solidity.readthedocs.io/en/v0.6.2/contracts.html#view-functions\r\n            uint256[] memory\r\n        )\r\n    {\r\n        // Uses the `memory` storage location to store values only for the\r\n        // lifecycle of this function call.\r\n        // Learn more: https://solidity.readthedocs.io/en/v0.6.2/introduction-to-smart-contracts.html#storage-memory-and-the-stack\r\n        uint256[] memory result = new uint256[](ownerPizzaCount[_owner]);\r\n        uint256 counter = 0;\r\n        for (uint256 i = 0; i < pizzas.length; i++) {\r\n            if (pizzaToOwner[i] == _owner) {\r\n                result[counter] = i;\r\n                counter++;\r\n            }\r\n        }\r\n        return result;\r\n    }\r\n\r\n    // Returns count of Pizzas by address\r\n    function balanceOf(address _owner)\r\n        public\r\n        override\r\n        view\r\n        returns (uint256 _balance)\r\n    {\r\n        return ownerPizzaCount[_owner];\r\n    }\r\n\r\n    // Returns owner of the Pizza found by id\r\n    function ownerOf(uint256 _pizzaId)\r\n        public\r\n        override\r\n        view\r\n        returns (address)\r\n    {\r\n        address _owner = pizzaToOwner[_pizzaId];\r\n        require(_owner != address(0), \"Invalid Pizza ID.\");\r\n        return _owner;\r\n    }\r\n\r\n    /**\r\n     * Safely transfers the ownership of a given token ID to another address\r\n     * If the target address is a contract, it must implement `onERC721Received`,\r\n     * which is called upon a safe transfer, and return the magic value\r\n     * `bytes4(keccak256(\"onERC721Received(address,address,uint256,bytes)\"))`;\r\n     * otherwise, the transfer is reverted.\r\n     */\r\n    function safeTransferFrom(\r\n        address from,\r\n        address to,\r\n        uint256 pizzaId\r\n    ) public override {\r\n        // solium-disable-next-line arg-overflow\r\n        safeTransferFrom(from, to, pizzaId, \"\");\r\n    }\r\n\r\n    // Transfers Pizza and ownership to other address\r\n    function transferFrom(\r\n        address _from,\r\n        address _to,\r\n        uint256 _pizzaId\r\n    ) public override {\r\n        require(_from != address(0) && _to != address(0), \"Invalid address.\");\r\n        require(_exists(_pizzaId), \"Pizza does not exist.\");\r\n        require(_from != _to, \"Cannot transfer to the same address.\");\r\n        require(\r\n            _isApprovedOrOwner(msg.sender, _pizzaId),\r\n            \"Address is not approved.\"\r\n        );\r\n\r\n        ownerPizzaCount[_to] = ownerPizzaCount[_to].add(1);\r\n        ownerPizzaCount[_from] = ownerPizzaCount[_from].sub(1);\r\n        pizzaToOwner[_pizzaId] = _to;\r\n\r\n        // Emits event defined in the imported IERC721 contract\r\n        emit Transfer(_from, _to, _pizzaId);\r\n        _clearApproval(_to, _pizzaId);\r\n    }\r\n\r\n    // Checks if Pizza exists\r\n    function _exists(uint256 pizzaId) internal view returns (bool) {\r\n        address _owner = pizzaToOwner[pizzaId];\r\n        return _owner != address(0);\r\n    }\r\n\r\n    // Checks if address is owner or is approved to transfer Pizza\r\n    function _isApprovedOrOwner(address spender, uint256 pizzaId)\r\n        internal\r\n        view\r\n        returns (bool)\r\n    {\r\n        address _owner = pizzaToOwner[pizzaId];\r\n        // Disable solium check because of\r\n        // https://github.com/duaraghav8/Solium/issues/175\r\n        // solium-disable-next-line operator-whitespace\r\n        return (spender == _owner ||\r\n            getApproved(pizzaId) == spender ||\r\n            isApprovedForAll(_owner, spender));\r\n    }\r\n\r\n    /**\r\n     * Private function to clear current approval of a given token ID\r\n     * Reverts if the given address is not indeed the owner of the token\r\n     */\r\n    function _clearApproval(address _owner, uint256 _pizzaId) private {\r\n        require(pizzaToOwner[_pizzaId] == _owner, \"Must be pizza owner.\");\r\n        require(_exists(_pizzaId), \"Pizza does not exist.\");\r\n        if (pizzaApprovals[_pizzaId] != address(0)) {\r\n            pizzaApprovals[_pizzaId] = address(0);\r\n        }\r\n    }\r\n\r\n    // Approves other address to transfer ownership of Pizza\r\n    function approve(address _to, uint256 _pizzaId) public override {\r\n        require(\r\n            msg.sender == pizzaToOwner[_pizzaId],\r\n            \"Must be the Pizza owner.\"\r\n        );\r\n        pizzaApprovals[_pizzaId] = _to;\r\n        emit Approval(msg.sender, _to, _pizzaId);\r\n    }\r\n\r\n    // Returns approved address for specific Pizza\r\n    function getApproved(uint256 _pizzaId)\r\n        public\r\n        override\r\n        view\r\n        returns (address operator)\r\n    {\r\n        require(_exists(_pizzaId), \"Pizza does not exist.\");\r\n        return pizzaApprovals[_pizzaId];\r\n    }\r\n\r\n    /*\r\n     * Sets or unsets the approval of a given operator\r\n     * An operator is allowed to transfer all tokens of the sender on their behalf\r\n     */\r\n    function setApprovalForAll(address to, bool approved) public override {\r\n        require(to != msg.sender, \"Cannot approve own address\");\r\n        operatorApprovals[msg.sender][to] = approved;\r\n        emit ApprovalForAll(msg.sender, to, approved);\r\n    }\r\n\r\n    // Tells whether an operator is approved by a given owner\r\n    function isApprovedForAll(address _owner, address operator)\r\n        public\r\n        override\r\n        view\r\n        returns (bool)\r\n    {\r\n        return operatorApprovals[_owner][operator];\r\n    }\r\n\r\n    /**\r\n     * Safely transfers the ownership of a given token ID to another address\r\n     * If the target address is a contract, it must implement `onERC721Received`,\r\n     * which is called upon a safe transfer, and return the magic value\r\n     * `bytes4(keccak256(\"onERC721Received(address,address,uint256,bytes)\"))`;\r\n     * otherwise, the transfer is reverted.\r\n     */\r\n    function safeTransferFrom(\r\n        address from,\r\n        address to,\r\n        uint256 pizzaId,\r\n        bytes memory _data\r\n    ) public override {\r\n        transferFrom(from, to, pizzaId);\r\n        require(\r\n            _checkOnERC721Received(from, to, pizzaId, _data),\r\n            \"Must implmement onERC721Received.\"\r\n        );\r\n    }\r\n\r\n    /**\r\n     * Internal function to invoke `onERC721Received` on a target address\r\n     * The call is not executed if the target address is not a contract\r\n     */\r\n    function _checkOnERC721Received(\r\n        address from,\r\n        address to,\r\n        uint256 pizzaId,\r\n        bytes memory _data\r\n    ) internal returns (bool) {\r\n        if (!to.isContract()) {\r\n            return true;\r\n        }\r\n\r\n        bytes4 retval = IERC721Receiver(to).onERC721Received(\r\n            msg.sender,\r\n            from,\r\n            pizzaId,\r\n            _data\r\n        );\r\n        return (retval == _ERC721_RECEIVED);\r\n    }\r\n\r\n    // Burns a Pizza - destroys Token completely\r\n    // The `external` function modifier means this function is\r\n    // part of the contract interface and other contracts can call it\r\n    function burn(uint256 _pizzaId) external {\r\n        require(msg.sender != address(0), \"Invalid address.\");\r\n        require(_exists(_pizzaId), \"Pizza does not exist.\");\r\n        require(\r\n            _isApprovedOrOwner(msg.sender, _pizzaId),\r\n            \"Address is not approved.\"\r\n        );\r\n\r\n        ownerPizzaCount[msg.sender] = ownerPizzaCount[msg.sender].sub(1);\r\n        pizzaToOwner[_pizzaId] = address(0);\r\n    }\r\n\r\n    // Takes ownership of Pizza - only for approved users\r\n    function takeOwnership(uint256 _pizzaId) public {\r\n        require(\r\n            _isApprovedOrOwner(msg.sender, _pizzaId),\r\n            \"Address is not approved.\"\r\n        );\r\n        address _owner = ownerOf(_pizzaId);\r\n        transferFrom(_owner, msg.sender, _pizzaId);\r\n    }\r\n\r\n}\r\n",
  "sourcePath": "D:/Work/ShingHoTan/crypto-pizza-master/contracts/CryptoPizza.sol",
  "compiler": {
    "name": "solc",
    "version": "0.6.12+commit.27d51765.Emscripten.clang"
  },
  "schemaVersion": "3.3.3",
  "updatedAt": "2021-02-03T13:27:40.785Z",
  "networkType": "ethereum",
  "devdoc": {
    "kind": "dev",
    "methods": {
      "supportsInterface(bytes4)": {
        "details": "See {IERC165-supportsInterface}. Time complexity O(1), guaranteed to always use less than 30 000 gas."
      }
    },
    "version": 1
  },
  "userdoc": {
    "kind": "user",
    "methods": {
      "safeTransferFrom(address,address,uint256)": {
        "notice": "Safely transfers the ownership of a given token ID to another address If the target address is a contract, it must implement `onERC721Received`, which is called upon a safe transfer, and return the magic value `bytes4(keccak256(\"onERC721Received(address,address,uint256,bytes)\"))`; otherwise, the transfer is reverted."
      },
      "safeTransferFrom(address,address,uint256,bytes)": {
        "notice": "Safely transfers the ownership of a given token ID to another address If the target address is a contract, it must implement `onERC721Received`, which is called upon a safe transfer, and return the magic value `bytes4(keccak256(\"onERC721Received(address,address,uint256,bytes)\"))`; otherwise, the transfer is reverted."
      }
    },
    "version": 1
  }
}